:020000040800F2
:100000008006002065020008A1020008A302000883
:10001000A5020008A7020008A902000800000000CD
:10002000000000000000000000000000AB0200081B
:10003000AD02000800000000AF0200085D030008E8
:10004000B3020008B3020008B3020008B3020008BC
:10005000B3020008B3020008B3020008B3020008AC
:10006000B3020008B3020008B3020008B30200089C
:10007000B3020008B3020008B3020008B30200088C
:10008000B3020008B3020008B3020008B30200087C
:10009000B3020008B3020008B3020008B30200086C
:1000A000B3020008B3020008B3020008B30200085C
:1000B00031050008B3020008B3020008B3020008CB
:1000C000B3020008B3020008B3020008B30200083C
:1000D000B3020008B3020008B3020008B30200082C
:1000E000B3020008B3020008B3020008B30200081C
:1000F000B3020008B3020008B3020008B30200080C
:10010000B3020008B3020008B3020008B3020008FB
:10011000B3020008B3020008B3020008B3020008EB
:10012000B3020008B3020008B3020008B3020008DB
:10013000B30200080000000000000000B302000845
:10014000B3020008B3020008B3020008B3020008BB
:10015000B3020008B3020008B3020008B3020008AB
:10016000B3020008B3020008B3020008B30200089B
:10017000B3020008B3020008B30200080000000048
:1001800000000000B30200080000000000000000B2
:10019000B30200080000000000000000B3020008E5
:1001A000000000000000000000000000B302000892
:1001B000B3020008B3020008B3020008B30200084B
:1001C000B302000800F002F800F03CF80AA090E842
:1001D000000C82448344AAF10107DA4501D100F002
:1001E00031F8AFF2090EBAE80F0013F0010F18BF93
:1001F000FB1A43F001031847700A0000900A000040
:10020000103A24BF78C878C1FAD8520724BF30C842
:1002100030C144BF04680C60704700000023002414
:1002200000250026103A28BF78C1FBD8520728BF06
:1002300030C148BF0B6070471FB500F00AFD1FBDFD
:1002400010B510BD00F050F81146FFF7F5FF00F0B3
:100250000BFA00F06EF803B4FFF7F2FF03BC00F0F6
:1002600075F8000016481749174B99423CBF50F8E3
:10027000042B41F8042BF8D314494FF000028B42B1
:1002800038BF43F8042BFAD3DFF84400016841F487
:1002900070010160BFF34F8FBFF36F8F0D480047B0
:1002A000FEE7FEE7FEE7FEE7FEE7FEE7FEE7FEE726
:1002B000FEE7FEE708480949094A0A4B7047000073
:1002C000880C00080000002020000020800600208C
:1002D00088ED00E0C50100088000002080060020B5
:1002E0008002002080020020754600F02BF8AE4608
:1002F00005006946534620F00700854618B020B532
:10030000FFF7D8FFBDE820404FF000064FF0000790
:100310004FF000084FF0000B21F00701AC46ACE8AD
:10032000C009ACE8C009ACE8C009ACE8C0098D461A
:10033000704710B50446AFF300802046BDE810407A
:10034000FFF789BF004870472000002001491820AE
:10035000ABBEFEE7260002007047000004480068BC
:1003600020B103480068401E014908607047000042
:100370001C0000206748006820F00F0065490860F5
:100380000846006840F0050008606348006840F0D7
:1003900001006149086000BF5F48006800F002008A
:1003A0000028F9D05C48006820F0F8005A4908603D
:1003B0000846006840F0800008600846006820F0A9
:1003C0008070086000BF5448006800F00070B0F111
:1003D000007FF8D05048001D006820F480004E498E
:1003E000091D08600846006808600846006820F09B
:1003F000706040F0007008600846006820F44030EB
:1004000008600846006847F6C071884340F43450DD
:100410004149091D08600846006820F03F0040F08F
:10042000080008603D483E4908603E4908603E4972
:10043000086039484030006840F08050364940310B
:1004400008603A48006840F440403849086008466F
:10045000006840F48030086000BF3448406800F411
:1004600080300028F9D03148006840F400302F492E
:10047000086000BF2D48406800F400300028F9D023
:1004800025488C30006840F0807023498C3108602A
:1004900021480830006820F0F0001F49083108604A
:1004A0000846006808600846006820F4E0500860CC
:1004B0000846006840F4A05008600846006820F430
:1004C000604008600846006840F400400860124838
:1004D000006840F080701049086000BF0E48006856
:1004E00000F000700028F9D00B480830006820F0B8
:1004F00003000949083108600846006840F002001E
:10050000086000BF04480830006800F00C000828AC
:10051000F8D17047003C0240003802400095BA0A0A
:10052000100000201800002014000020007000407F
:1005300010B54FF08040006900F0010078B14FF035
:100540008040006920F001004FF0804108610448BC
:10055000406980F020000249486100F003F810BDB6
:100560000000024010B52248007810B101283CD1AB
:1005700014E02048406940F480501E4948611E48FC
:100580000068401C1C49086000201C4908601A488B
:10059000006810B101201649087026E0154840692E
:1005A00020F480501349486113480068401C1249E8
:1005B00008601048006900F4807058B10F48006866
:1005C000401C0E4908600846006800F01BF80C4803
:1005D00080ED000A08480068B0F5FA7F04D30020D7
:1005E000054908600249087000BF00BF10BD000047
:1005F000000000200000024004000020080000204D
:100600000C00002010B52DED068B04469FED120A5C
:10061000B0EE408A00EE104AB8EEC00ADFED0F0AD5
:1006200020EE200AB0EE408A18EE100A00F0A0FA80
:1006300041EC1A0B9FED0A0B53EC102B00F0ECF879
:1006400041EC190B00F0B6F808EE100AB0EE480ABB
:10065000BDEC068B10BD0000000000000000C84289
:10066000AE47E17A141E4D40FFF784FE4A48006809
:100670004FF47A72B0FBF2F1481EB0F1807F00D3E4
:100680001BE0481E4FF0E022506150170F22002857
:1006900004DB13071C0E414B1C5406E013071D0E10
:1006A0003F4B00F00F04241F1D5500BF00204FF0EA
:1006B000E02290610720106100BF3A48006840F0D6
:1006C00001003849086037481030006840F00100E8
:1006D0003449103108603448006820F00C00324979
:1006E00008600846006840F0080008600846006A94
:1006F00020F0F00008620846006A40F0100008622E
:1007000008460068294908402749086008460068EB
:1007100027490843244908604803006820F0600026
:10072000490308600846006820F010000860B32004
:1007300088626420C8620007806920F44070886184
:100740000846806940F4C0408861322088634007D1
:10075000006A40F0100008620846006840F001009E
:1007600008600846C06840F00100C860084600699B
:1007700020F0010008611C20002809DB00F01F02A6
:10078000012191404209920002F1E022C2F80011D9
:1007900000BF00BFFEE700001000002000E400E002
:1007A00018ED00E03038024000000240FFF3FCFC8E
:1007B0000004000121F00042A2F16052B2F5801F56
:1007C00001F0004328BFD2F17F6C0BD95FEA001C17
:1007D00043EAC20242EB507018BF704728BF20F0B6
:1007E00001007047B2F5801FBCBF184670474FEA42
:1007F000410C1CF5001F02D2084600F02FBA70B55C
:1008000000F062F900000089FFF7F6BF4FF00040EA
:10081000A0F58000704700002DE9C04130B4DFF83A
:10082000A0C23CEA111418BF3CEA131400F0EC809B
:1008300081EA03051CEA111444EAD57418BF1CEAC6
:10084000131500F0C780A4EB05044FF0004545EAFE
:10085000C12145EAC32341EA505143EA525304F10E
:100860007F74994204F500344FEAC0204FEAC22257
:1008700008BF904200F09C804FEA13650FF24016CB
:10088000765D4FEA134506FB05F7C7F1807706FB57
:1008900007F74FEAD737A7FB03687642C8F58038D9
:1008A000A7FB06CE38BFA8F1010807FB08E64FF00A
:1008B000000EA6FB028CE6FB03CEDCF1000CCEF1B1
:1008C000004E38BFAEF1010EA6FB0C584FF00007EA
:1008D0004FF00005E6FB0E87A1FB08C6A0FB07CE84
:1008E00016EB0E0645F10005E1FB076515F1E04E3C
:1008F0007EBFA4F580345FEA46066D4116F180079D
:1009000045F100054FEA17274FEA066647EA0567F3
:10091000A6F1DE46B6F1805F4FEA15251FD93846AD
:1009200024F0010C05EBC471BCF1FE6F01EB0C115E
:1009300002D8F0BCBDE8008124425CBF01F5801EF6
:100940009EEAC47F02D4F0BCBDE80081244238D4C2
:10095000F0BCA1F1C041BDE8004100F003B94FEA8D
:10096000D22242EA43524FEAD323A7FB02864FEA40
:10097000D02040EA415007FB03661EEA0E0F4FEA03
:10098000D12105FB026658BFA6EB0056B6EB005618
:100990004FEA520E4EEAC37E18EB0E0E56EB530E84
:1009A000BDD518EB02085E417F1C55F10005B6E786
:1009B0004FF480154FF000074FF000064FF000088D
:1009C000ADE7F0BC4FF0000001F1C04101F0004183
:1009D000BDE8008111EA0C1F0CEA131500D00CE0F1
:1009E00013EA0C1F00F025804FF00000F0BC81EAF4
:1009F000030101F00041BDE80081F0BCBDE8004109
:100A000081EA030100F0AEB8F0BCBDE8004170B56A
:100A100000F05AF8097EFC3E00F007B881EA0301B5
:100A20004FF0000001F00041704781EA030100F03F
:100A300099B8F0BCBDE800414FF000002149704773
:100A4000FFFDFBF9F7F5F4F2F0EEEDEBE9E8E6E493
:100A5000E3E1E0DEDDDBDAD8D7D5D4D3D1D0CFCD1A
:100A6000CCCBCAC8C7C6C5C4C2C1C0BFBEBDBCBB53
:100A7000BAB9B8B7B6B5B4B3B2B1B0AFAEADACAB4E
:100A8000AAA9A8A8A7A6A5A4A3A3A2A1A09F9F9E28
:100A90009D9C9C9B9A9999989797969595949393DA
:100AA000929191908F8F8E8E8D8C8C8B8B8A898971
:100AB00088888787868585848483838282818180F4
:100AC0000000FF070000F87F0EF1020E2EF0030E6B
:100AD0005EF8046B364205D4012A43EB030515F595
:100AE000001F12D8012841EB010C1CF5001F0CD887
:100AF0000ED14FEAD17C15F5001F0CEB4C0C0CF11C
:100B0000020C08BF4CEBD37C04E04FF0080C01E072
:100B10004FEAD37C0CEB4C0526FA05F606F00706E7
:100B2000B6F1040C06D20EEB860CBDE870404CF01A
:100B3000010C6047DFE80CF0090B02024FF00041A6
:100B40004FF00000A1F5002170BD194610460128A4
:100B500051EB010418BFD4F5001484BF002001F04C
:100B6000004170BD0808A0F500114FEA310170473F
:100B700043004FEAD30C4FEA3C0C43401FBF4007F1
:100B80000CF1605113F0FE4F70471CF0006F03D161
:100B900000200CF0004170470CF0004343EA507015
:100BA00010B540EACC0000F00EF800BF0000009243
:100BB0004FEA0001FFF7D6BF4FF000414FF00000B1
:100BC000A1F5002170470EF1020E2EF0030E5EF823
:100BD000044B244204D44FEA4102B2F17F4F11D8B2
:100BE0004FEA4003B3F17F4F0CD80ED14FEAD07CCF
:100BF000B2F17F4F0CEB4C0C0CF1020C08BF4CEB2C
:100C0000D17C04E04FF0080C01E04FEAD17C0CEB02
:100C10004C0324FA03F404F00704B4F1040C06D2E4
:100C20000EEB840CBDE810404CF0010C6047DFE88F
:100C30000CF0070802024FF00040A0F5800010BD44
:100C40000846420018BFD2F1807288BF00F0004011
:100C500010BD4FF04070E1EE100A7047FF2141EAED
:100C6000D050C00570470000880C0008000000202C
:100C70002000000000020008A80C0008200000204E
:100C8000600600001C0200080100000000000000D7
:100C90000000000000000000000000000000000054
:080CA00000000000000000004C
:04000005080001C529
:00000001FF
