:020000040800F2
:100000008806002065020008A1020008A30200087B
:10001000A5020008A7020008A902000800000000CD
:10002000000000000000000000000000AB0200081B
:10003000AD02000800000000AF0200085D030008E8
:10004000B3020008B3020008B3020008B3020008BC
:10005000B3020008B3020008B3020008B3020008AC
:10006000B3020008B3020008B3020008B30200089C
:10007000B3020008B3020008B3020008B30200088C
:10008000B3020008B3020008B3020008B30200087C
:10009000B3020008B3020008B3020008B30200086C
:1000A000B3020008B3020008B3020008B30200085C
:1000B000B3020008B3020008B3020008B30200084C
:1000C000B3020008B3020008B3020008B30200083C
:1000D000B3020008B3020008B3020008B30200082C
:1000E000B3020008B3020008B3020008B30200081C
:1000F000B3020008B3020008B3020008B30200080C
:10010000B3020008B302000831050008B30200087A
:10011000B3020008B3020008B3020008B3020008EB
:10012000B3020008B3020008B3020008B3020008DB
:10013000B30200080000000000000000B302000845
:10014000B3020008B3020008B3020008B3020008BB
:10015000B3020008B3020008B3020008B3020008AB
:10016000B3020008B3020008B3020008B30200089B
:10017000B3020008B3020008B30200080000000048
:1001800000000000B30200080000000000000000B2
:10019000B30200080000000000000000B3020008E5
:1001A000000000000000000000000000B302000892
:1001B000B3020008B3020008B3020008B30200084B
:1001C000B302000800F002F800F03CF80AA090E842
:1001D000000C82448344AAF10107DA4501D100F002
:1001E00031F8AFF2090EBAE80F0013F0010F18BF93
:1001F000FB1A43F001031847DC050000FC05000072
:10020000103A24BF78C878C1FAD8520724BF30C842
:1002100030C144BF04680C60704700000023002414
:1002200000250026103A28BF78C1FBD8520728BF06
:1002300030C148BF0B6070471FB500F0C5FA1FBD45
:1002400010B510BD00F050F81146FFF7F5FF00F0B3
:10025000EDF900F06EF803B4FFF7F2FF03BC00F015
:1002600075F8000016481749174B99423CBF50F8E3
:10027000042B41F8042BF8D314494FF000028B42B1
:1002800038BF43F8042BFAD3DFF84400016841F487
:1002900070010160BFF34F8FBFF36F8F0D480047B0
:1002A000FEE7FEE7FEE7FEE7FEE7FEE7FEE7FEE726
:1002B000FEE7FEE708480949094A0A4B7047000073
:1002C000F407000800000020240000208806002019
:1002D00088ED00E0C50100088800002088060020A5
:1002E0008802002088020020754600F02BF8AE46F8
:1002F00005006946534620F00700854618B020B532
:10030000FFF7D8FFBDE820404FF000064FF0000790
:100310004FF000084FF0000B21F00701AC46ACE8AD
:10032000C009ACE8C009ACE8C009ACE8C0098D461A
:10033000704710B50446AFF300802046BDE810407A
:10034000FFF789BF004870472400002001491820AA
:10035000ABBEFEE7260002007047000004480068BC
:1003600020B103480068401E014908607047000042
:10037000200000206748006820F00F0065490860F1
:100380000846006840F0050008606348006840F0D7
:1003900001006149086000BF5F48006800F002008A
:1003A0000028F9D05C48006820F0F8005A4908603D
:1003B0000846006840F0800008600846006820F0A9
:1003C0008070086000BF5448006800F00070B0F111
:1003D000007FF8D05048001D006820F480004E498E
:1003E000091D08600846006808600846006820F09B
:1003F000706040F0007008600846006820F44030EB
:1004000008600846006847F6C071884340F43450DD
:100410004149091D08600846006820F03F0040F08F
:10042000080008603D483E4908603E4908603E4972
:10043000086039484030006840F08050364940310B
:1004400008603A48006840F440403849086008466F
:10045000006840F48030086000BF3448406800F411
:1004600080300028F9D03148006840F400302F492E
:10047000086000BF2D48406800F400300028F9D023
:1004800025488C30006840F0807023498C3108602A
:1004900021480830006820F0F0001F49083108604A
:1004A0000846006808600846006820F4E0500860CC
:1004B0000846006840F4A05008600846006820F430
:1004C000604008600846006840F400400860124838
:1004D000006840F080701049086000BF0E48006856
:1004E00000F000700028F9D00B480830006820F0B8
:1004F00003000949083108600846006840F002001E
:10050000086000BF04480830006800F00C000828AC
:10051000F8D17047003C0240003802400095BA0A0A
:10052000140000201C000020180000200070004073
:1005300000B51E48006800F0040030B31B48006896
:1005400020F004001949086018482830006840F677
:10055000980188420BD915482830006840F62821B8
:10056000884204D8002012490860124908600F48E8
:1005700028300068B0F5C87F03D2002000F030F8C2
:1005800013E0012000F02CF80FE00848006800F0AC
:10059000010050B10548006820F0010003490860DF
:1005A0000020034908600349086000BD100C0040AA
:1005B000080000200C00002010B5002804DB0A070A
:1005C000130E054A135406E00A07140E034A00F0FE
:1005D0000F031B1FD45410BD00E400E018ED00E031
:1005E00028B90F49096849080D4A116007E00C490C
:1005F00009684FF0004242EA5101094A1160094975
:100600000968491C074A116011460968202903D36B
:100610000121054A116002E00021034A1160704780
:10062000080000200C00002010000020FFF7A2FEB0
:100630005F4800684FF47A71B0FBF1F4601EB0F1CE
:10064000807F00D30FE0601E4FF0E02148610F2152
:100650004FF0FF30FFF7B0FF00204FF0E02188613E
:100660000720086100BF5348006840F0010051496D
:10067000086050481030006840F008004D491031C3
:1006800008604D48006820F00C004B49086008469F
:10069000006840F0080008600846006A20F0F0009A
:1006A00008620846006A40F020000862434800687B
:1006B00020F06000414908600846006820F0100002
:1006C000086040F2F3303D49283108603C48091D7C
:1006D00008603A48006840F004003849086037482C
:1006E0001830006820F4407034491831086008461A
:1006F000006840F48070086030482030006820F0C6
:10070000A0002E49203108600846006840F0200013
:1007100008600846006840F010000860274808306C
:10072000006820F077002549083108600846006815
:1007300040F0600008600846006840F0040008606F
:10074000081D006840F00500091D08601B481430B2
:10075000006840F001001949143108600020091FA9
:10076000086002213220FFF727FF3220002807DB34
:1007700000F01F0201219140124A430942F8231060
:1007800000BF3220002809DB00F01F020121914048
:100790004209920002F1E022C2F8001100BF0748AE
:1007A000006840F001000549086000BFFEE7000056
:1007B000140000203038024000000240000C0040CD
:1007C0009F86010080E200E04FF04070E1EE100AE9
:1007D00070470000F407000800000020240000001B
:1007E0000002000818080008240000206406000029
:1007F0001C020008000000000000000000000000D3
:1008000000000000000000000000000000000000E8
:080810000000000000000000E0
:04000005080001C529
:00000001FF
