:020000040800F2
:100000008006002065020008A1020008A302000883
:10001000A5020008A7020008A902000800000000CD
:10002000000000000000000000000000AB0200081B
:10003000AD02000800000000AF0200085D030008E8
:10004000B3020008B3020008B3020008B3020008BC
:10005000B3020008B3020008B3020008B3020008AC
:10006000B3020008B3020008B3020008B30200089C
:10007000B3020008B3020008B3020008B30200088C
:10008000B3020008B3020008B3020008B30200087C
:10009000B3020008B3020008B3020008B30200086C
:1000A000B3020008B3020008B3020008B30200085C
:1000B00031050008B3020008B3020008B3020008CB
:1000C000B3020008B3020008B3020008B30200083C
:1000D000B3020008B3020008B3020008B30200082C
:1000E000B3020008B3020008B3020008B30200081C
:1000F000B3020008B3020008B3020008B30200080C
:10010000B3020008B3020008B3020008B3020008FB
:10011000B3020008B3020008B3020008B3020008EB
:10012000B3020008B3020008B3020008B3020008DB
:10013000B30200080000000000000000B302000845
:10014000B3020008B3020008B3020008B3020008BB
:10015000B3020008B3020008B3020008B3020008AB
:10016000B3020008B3020008B3020008B30200089B
:10017000B3020008B3020008B30200080000000048
:1001800000000000B30200080000000000000000B2
:10019000B30200080000000000000000B3020008E5
:1001A000000000000000000000000000B302000892
:1001B000B3020008B3020008B3020008B30200084B
:1001C000B302000800F002F800F03CF80AA090E842
:1001D000000C82448344AAF10107DA4501D100F002
:1001E00031F8AFF2090EBAE80F0013F0010F18BF93
:1001F000FB1A43F00103184750050000700500008A
:10020000103A24BF78C878C1FAD8520724BF30C842
:1002100030C144BF04680C60704700000023002414
:1002200000250026103A28BF78C1FBD8520728BF06
:1002300030C148BF0B6070471FB500F07FFA1FBD8B
:1002400010B510BD00F050F81146FFF7F5FF00F0B3
:10025000CFF900F06EF803B4FFF7F2FF03BC00F033
:1002600075F8000016481749174B99423CBF50F8E3
:10027000042B41F8042BF8D314494FF000028B42B1
:1002800038BF43F8042BFAD3DFF84400016841F487
:1002900070010160BFF34F8FBFF36F8F0D480047B0
:1002A000FEE7FEE7FEE7FEE7FEE7FEE7FEE7FEE726
:1002B000FEE7FEE708480949094A0A4B7047000073
:1002C00068070008000000201C00002080060020B5
:1002D00088ED00E0C50100088000002080060020B5
:1002E0008002002080020020754600F02BF8AE4608
:1002F00005006946534620F00700854618B020B532
:10030000FFF7D8FFBDE820404FF000064FF0000790
:100310004FF000084FF0000B21F00701AC46ACE8AD
:10032000C009ACE8C009ACE8C009ACE8C0098D461A
:10033000704710B50446AFF300802046BDE810407A
:10034000FFF789BF004870471C00002001491820B2
:10035000ABBEFEE7260002007047000004480068BC
:1003600020B103480068401E014908607047000042
:10037000180000206748006820F00F0065490860F9
:100380000846006840F0050008606348006840F0D7
:1003900001006149086000BF5F48006800F002008A
:1003A0000028F9D05C48006820F0F8005A4908603D
:1003B0000846006840F0800008600846006820F0A9
:1003C0008070086000BF5448006800F00070B0F111
:1003D000007FF8D05048001D006820F480004E498E
:1003E000091D08600846006808600846006820F09B
:1003F000706040F0007008600846006820F44030EB
:1004000008600846006847F6C071884340F43450DD
:100410004149091D08600846006820F03F0040F08F
:10042000080008603D483E4908603E4908603E4972
:10043000086039484030006840F08050364940310B
:1004400008603A48006840F440403849086008466F
:10045000006840F48030086000BF3448406800F411
:1004600080300028F9D03148006840F400302F492E
:10047000086000BF2D48406800F400300028F9D023
:1004800025488C30006840F0807023498C3108602A
:1004900021480830006820F0F0001F49083108604A
:1004A0000846006808600846006820F4E0500860CC
:1004B0000846006840F4A05008600846006820F430
:1004C000604008600846006840F400400860124838
:1004D000006840F080701049086000BF0E48006856
:1004E00000F000700028F9D00B480830006820F0B8
:1004F00003000949083108600846006840F002001E
:10050000086000BF04480830006800F00C000828AC
:10051000F8D17047003C0240003802400095BA0A0A
:100520000C0000201400002010000020007000408B
:1005300000B54FF08040006900F0010078B14FF045
:100540008040006920F001004FF0804108610448BC
:10055000406980F020000249486100F003F800BDC6
:10056000000002401E48007810B1012836D114E086
:100570001C48406940F480501A4948611A48006894
:10058000401C194908600020184908601648006896
:1005900010B101201249087020E01248406920F48F
:1005A00080501049486110480068401C0E4908609E
:1005B0000C48006900F48070012804D10B480068E1
:1005C000401C0A49086008480068B0F5FA7F04D367
:1005D0000020054908600249087000BF00BF70474D
:1005E000000000200000024004000020080000205D
:1005F000FFF7C0FE4A4800684FF47A72B0FBF2F190
:10060000481EB0F1807F00D31BE0481E4FF0E0226F
:10061000506150170F22002804DB13071C0E414BBA
:100620001C5406E013071D0E3F4B00F00F04241F5F
:100630001D5500BF00204FF0E0229061072010619F
:1006400000BF3A48006840F0010038490860374868
:100650001030006840F0010034491031086034481F
:10066000006820F00C00324908600846006840F03D
:10067000080008600846006A20F0F000086208469A
:10068000006A40F0100008620846006829490840E6
:10069000274908600846006827490843244908603C
:1006A0004803006820F060004903086008460068BD
:1006B00020F010000860B32088626420C862000740
:1006C000806920F4407088610846806940F4C04029
:1006D0008861322088634007006A40F01000086299
:1006E0000846006840F0010008600846C06840F015
:1006F0000100C8600846006920F0010008611C2064
:10070000002809DB00F01F020121914042099200FC
:1007100002F1E022C2F8001100BF00BFFEE70000B6
:100720000C00002000E400E018ED00E0303802404A
:1007300000000240FFF3FCFC000400014FF0407099
:10074000E1EE100A70470000680700080000002072
:100750001C00000000020008840700081C000020A4
:10076000640600001C0200080100000000000000F8
:100770000000000000000000000000000000000079
:040780000000000075
:04000005080001C529
:00000001FF
